{
  "address": "0x015e23773ce5ca1f2d1dC53d1c1ff5AD53DF1362",
  "abi": [
    {
      "inputs": [
        {
          "internalType": "address",
          "name": "_poolAddress",
          "type": "address"
        }
      ],
      "stateMutability": "nonpayable",
      "type": "constructor"
    },
    {
      "anonymous": false,
      "inputs": [
        {
          "indexed": false,
          "internalType": "address",
          "name": "token",
          "type": "address"
        },
        {
          "indexed": false,
          "internalType": "uint256",
          "name": "amount",
          "type": "uint256"
        }
      ],
      "name": "LoanReceived",
      "type": "event"
    },
    {
      "inputs": [
        {
          "internalType": "uint256",
          "name": "_amount",
          "type": "uint256"
        }
      ],
      "name": "executeFlashLoan",
      "outputs": [],
      "stateMutability": "nonpayable",
      "type": "function"
    },
    {
      "inputs": [
        {
          "internalType": "address",
          "name": "_tokenAddress",
          "type": "address"
        },
        {
          "internalType": "uint256",
          "name": "_amount",
          "type": "uint256"
        }
      ],
      "name": "receiveTokens",
      "outputs": [],
      "stateMutability": "nonpayable",
      "type": "function"
    }
  ],
  "transactionHash": "0x9a0a11b5e37794a7709ed35989b7572a08084a08568491da7beba11a708f0bd9",
  "args": [
    "0x797DCb391686Cc1BA3CcCc4ad50bAd77354c4538"
  ],
  "numDeployments": 1,
  "solcInputHash": "4c66681c981e5f44dc9d6142bb75f8c9",
  "bytecode": "0x608060405234801561001057600080fd5b506040516105d03803806105d083398101604081905261002f9161005d565b600080546001600160a01b039092166001600160a01b0319928316179055600180549091163317905561008d565b60006020828403121561006f57600080fd5b81516001600160a01b038116811461008657600080fd5b9392505050565b6105348061009c6000396000f3fe608060405234801561001057600080fd5b50600436106100365760003560e01c8063357291301461003b578063fb056f6814610050575b600080fd5b61004e61004936600461045e565b610063565b005b61004e61005e3660046104a3565b610330565b6040517f70a08231000000000000000000000000000000000000000000000000000000008152306004820152819073ffffffffffffffffffffffffffffffffffffffff8416906370a0823190602401602060405180830381865afa1580156100cf573d6000803e3d6000fd5b505050506040513d601f19601f820116820180604052508101906100f391906104bc565b1461015f576040517f08c379a000000000000000000000000000000000000000000000000000000000815260206004820152601260248201527f4661696c656420746f20676574206c6f616e000000000000000000000000000060448201526064015b60405180910390fd5b60005473ffffffffffffffffffffffffffffffffffffffff1633146101e0576040517f08c379a000000000000000000000000000000000000000000000000000000000815260206004820152601360248201527f53656e646572206d75737420626520706f6f6c000000000000000000000000006044820152606401610156565b6040805173ffffffffffffffffffffffffffffffffffffffff84168152602081018390527f1eb85bd961c2383a0fab35aca88c37d338e2c256ca614015fb37027205bfe949910160405180910390a16040517fa9059cbb0000000000000000000000000000000000000000000000000000000081523360048201526024810182905273ffffffffffffffffffffffffffffffffffffffff83169063a9059cbb906044016020604051808303816000875af11580156102a2573d6000803e3d6000fd5b505050506040513d601f19601f820116820180604052508101906102c691906104d5565b61032c576040517f08c379a000000000000000000000000000000000000000000000000000000000815260206004820152601960248201527f5472616e73666572206f6620746f6b656e73206661696c6564000000000000006044820152606401610156565b5050565b60015473ffffffffffffffffffffffffffffffffffffffff1633146103d7576040517f08c379a000000000000000000000000000000000000000000000000000000000815260206004820152602360248201527f4f6e6c79206f776e6572732063616e206578656375746520666c617368206c6f60448201527f616e7300000000000000000000000000000000000000000000000000000000006064820152608401610156565b6000546040517f9ab603b90000000000000000000000000000000000000000000000000000000081526004810183905273ffffffffffffffffffffffffffffffffffffffff90911690639ab603b990602401600060405180830381600087803b15801561044357600080fd5b505af1158015610457573d6000803e3d6000fd5b5050505050565b6000806040838503121561047157600080fd5b823573ffffffffffffffffffffffffffffffffffffffff8116811461049557600080fd5b946020939093013593505050565b6000602082840312156104b557600080fd5b5035919050565b6000602082840312156104ce57600080fd5b5051919050565b6000602082840312156104e757600080fd5b815180151581146104f757600080fd5b939250505056fea264697066735822122033500e984f41ba45c7bbce11ea5fd7e60bbd966cedb80d1e5f7bfb5611cd22c464736f6c63430008110033",
  "devdoc": {
    "kind": "dev",
    "methods": {},
    "version": 1
  },
  "userdoc": {
    "kind": "user",
    "methods": {},
    "version": 1
  },
  "storageLayout": {
    "storage": [
      {
        "astId": 519,
        "contract": "contracts/FlashLoanReceiver.sol:FlashLoanReceiver",
        "label": "pool",
        "offset": 0,
        "slot": "0",
        "type": "t_contract(FlashLoan)511"
      },
      {
        "astId": 521,
        "contract": "contracts/FlashLoanReceiver.sol:FlashLoanReceiver",
        "label": "owner",
        "offset": 0,
        "slot": "1",
        "type": "t_address"
      }
    ],
    "types": {
      "t_address": {
        "encoding": "inplace",
        "label": "address",
        "numberOfBytes": "20"
      },
      "t_contract(FlashLoan)511": {
        "encoding": "inplace",
        "label": "contract FlashLoan",
        "numberOfBytes": "20"
      }
    }
  }
}