{
  "address": "0x3e836BA4c7f28901aaca5ee22762fAE59127c8Cd",
  "abi": [
    {
      "inputs": [
        {
          "internalType": "address",
          "name": "_tokenAddress",
          "type": "address"
        }
      ],
      "stateMutability": "nonpayable",
      "type": "constructor"
    },
    {
      "inputs": [
        {
          "internalType": "uint256",
          "name": "_amount",
          "type": "uint256"
        }
      ],
      "name": "depositTokens",
      "outputs": [],
      "stateMutability": "nonpayable",
      "type": "function"
    },
    {
      "inputs": [
        {
          "internalType": "uint256",
          "name": "_borrowAmount",
          "type": "uint256"
        }
      ],
      "name": "flashLoan",
      "outputs": [],
      "stateMutability": "nonpayable",
      "type": "function"
    },
    {
      "inputs": [],
      "name": "poolBalance",
      "outputs": [
        {
          "internalType": "uint256",
          "name": "",
          "type": "uint256"
        }
      ],
      "stateMutability": "view",
      "type": "function"
    },
    {
      "inputs": [],
      "name": "token",
      "outputs": [
        {
          "internalType": "contract Token",
          "name": "",
          "type": "address"
        }
      ],
      "stateMutability": "view",
      "type": "function"
    }
  ],
  "transactionHash": "0x1ece9273c488f37975fd5be344ba1f4b846beeda11dd92ea0fc051de19e68b7b",
  "args": [
    "0x797DCb391686Cc1BA3CcCc4ad50bAd77354c4538"
  ],
  "numDeployments": 1,
  "solcInputHash": "4c66681c981e5f44dc9d6142bb75f8c9",
  "bytecode": "0x608060405234801561001057600080fd5b506040516107df3803806107df83398101604081905261002f91610059565b6001600081905580546001600160a01b0319166001600160a01b0392909216919091179055610089565b60006020828403121561006b57600080fd5b81516001600160a01b038116811461008257600080fd5b9392505050565b610747806100986000396000f3fe608060405234801561001057600080fd5b506004361061004c5760003560e01c806396365d44146100515780639ab603b91461006d578063dd49756e14610082578063fc0c546a14610095575b600080fd5b61005a60025481565b6040519081526020015b60405180910390f35b61008061007b36600461064d565b6100da565b005b61008061009036600461064d565b610497565b6001546100b59073ffffffffffffffffffffffffffffffffffffffff1681565b60405173ffffffffffffffffffffffffffffffffffffffff9091168152602001610064565b6100e26105c5565b60008111610151576040517f08c379a000000000000000000000000000000000000000000000000000000000815260206004820152601e60248201527f4d75737420626f72726f77206174206c65616174206f6e6520746f6b656e000060448201526064015b60405180910390fd5b6001546040517f70a0823100000000000000000000000000000000000000000000000000000000815230600482015260009173ffffffffffffffffffffffffffffffffffffffff16906370a0823190602401602060405180830381865afa1580156101c0573d6000803e3d6000fd5b505050506040513d601f19601f820116820180604052508101906101e49190610666565b905081811015610250576040517f08c379a000000000000000000000000000000000000000000000000000000000815260206004820152601960248201527f4e6f7420656e6f75676820746f6b656e7320696e20706f6f6c000000000000006044820152606401610148565b80600254146102615761026161067f565b6001546040517fa9059cbb0000000000000000000000000000000000000000000000000000000081523360048201526024810184905273ffffffffffffffffffffffffffffffffffffffff9091169063a9059cbb906044016020604051808303816000875af11580156102d8573d6000803e3d6000fd5b505050506040513d601f19601f820116820180604052508101906102fc91906106ae565b506001546040517f3572913000000000000000000000000000000000000000000000000000000000815273ffffffffffffffffffffffffffffffffffffffff9091166004820152602481018390523390633572913090604401600060405180830381600087803b15801561036f57600080fd5b505af1158015610383573d6000803e3d6000fd5b50506001546040517f70a082310000000000000000000000000000000000000000000000000000000081523060048201526000935073ffffffffffffffffffffffffffffffffffffffff90911691506370a0823190602401602060405180830381865afa1580156103f8573d6000803e3d6000fd5b505050506040513d601f19601f8201168201806040525081019061041c9190610666565b905081811015610488576040517f08c379a000000000000000000000000000000000000000000000000000000000815260206004820181905260248201527f466c617368206c6f616e206861736e2774206265656e2070616964206261636b6044820152606401610148565b50506104946001600055565b50565b61049f6105c5565b60008111610509576040517f08c379a000000000000000000000000000000000000000000000000000000000815260206004820152601f60248201527f4d757374206465706f736974206174206c65617374206f6e6520746f6b656e006044820152606401610148565b6001546040517f23b872dd0000000000000000000000000000000000000000000000000000000081523360048201523060248201526044810183905273ffffffffffffffffffffffffffffffffffffffff909116906323b872dd906064016020604051808303816000875af1158015610586573d6000803e3d6000fd5b505050506040513d601f19601f820116820180604052508101906105aa91906106ae565b506002546105b89082610638565b6002556104946001600055565b600260005403610631576040517f08c379a000000000000000000000000000000000000000000000000000000000815260206004820152601f60248201527f5265656e7472616e637947756172643a207265656e7472616e742063616c6c006044820152606401610148565b6002600055565b600061064482846106d7565b90505b92915050565b60006020828403121561065f57600080fd5b5035919050565b60006020828403121561067857600080fd5b5051919050565b7f4e487b7100000000000000000000000000000000000000000000000000000000600052600160045260246000fd5b6000602082840312156106c057600080fd5b815180151581146106d057600080fd5b9392505050565b80820180821115610647577f4e487b7100000000000000000000000000000000000000000000000000000000600052601160045260246000fdfea2646970667358221220e89ddf5303b43219166b61bdde92b62401fc7aa52cc508d7532adb891b5e45df64736f6c63430008110033",
  "devdoc": {
    "kind": "dev",
    "methods": {},
    "version": 1
  },
  "userdoc": {
    "kind": "user",
    "methods": {},
    "version": 1
  },
  "storageLayout": {
    "storage": [
      {
        "astId": 10,
        "contract": "contracts/FlashLoan.sol:FlashLoan",
        "label": "_status",
        "offset": 0,
        "slot": "0",
        "type": "t_uint256"
      },
      {
        "astId": 387,
        "contract": "contracts/FlashLoan.sol:FlashLoan",
        "label": "token",
        "offset": 0,
        "slot": "1",
        "type": "t_contract(Token)860"
      },
      {
        "astId": 389,
        "contract": "contracts/FlashLoan.sol:FlashLoan",
        "label": "poolBalance",
        "offset": 0,
        "slot": "2",
        "type": "t_uint256"
      }
    ],
    "types": {
      "t_contract(Token)860": {
        "encoding": "inplace",
        "label": "contract Token",
        "numberOfBytes": "20"
      },
      "t_uint256": {
        "encoding": "inplace",
        "label": "uint256",
        "numberOfBytes": "32"
      }
    }
  }
}